:020000040800F2
:10280000A808002089290008074300086141000842
:1028100005430008B72A00085D46000800000000D4
:102820000000000000000000000000000B43000852
:10283000DD2A000800000000094300080D430008DD
:10284000A3290008A3290008A3290008A329000838
:10285000A3290008A3290008A3290008A329000828
:10286000A3290008A3290008A3290008A329000818
:10287000A3290008B92A0008C52A0008D12A00089F
:10288000A3290008A3290008A3290008A3290008F8
:10289000A3290008A3290008A3290008A3290008E8
:1028A000A329000871430008A3290008A3290008F0
:1028B0007D430008A3290008A3290008A3290008D4
:1028C000A3290008A3290008A3290008A3290008B8
:1028D000A329000845460008A3290008514600081E
:1028E000A3290008A3290008A329000800F002F882
:1028F00000F03AF80AA090E8000C82448344AAF160
:102900000107DA4501D100F02FF8AFF2090EBAE85D
:102910000F0013F0010F18BFFB1A43F00103184713
:102920003821000058210000103A24BF78C878C12F
:10293000FAD8520724BF30C830C144BF04680C60C5
:10294000704700000023002400250026103A28BF0D
:1029500078C1FBD8520728BF30C148BF0B60704711
:102960001FB51FBD10B510BD00F06BF81146FFF785
:10297000F7FF01F099FF00F089F803B4FFF7F2FFC9
:1029800003BC00F091F8000009488047094800475F
:10299000FEE7FEE7FEE7FEE7FEE7FEE7FEE7FEE70F
:1029A000FEE7FEE704480549054A064B704700006C
:1029B0006F430008ED280008A8020020A8080020A6
:1029C000A8040020A8040020B2F120030AD5C2F117
:1029D000200320FA02F001FA03F321FA02F140EA9F
:1029E0000300704721FA03F04FF0000170474FF0E9
:1029F000000200B5134694469646203922BFA0E84F
:102A00000C50A0E80C50B1F12001BFF4F7AF09075A
:102A100028BFA0E80C5048BF0CC05DF804EB89004B
:102A200028BF40F8042B08BF704748BF20F8022B8E
:102A300011F0804F18BF00F8012B704770477047A6
:102A40007047754600F02CF8AE46050069465346BF
:102A500020F00700854618B020B5FFF7A3FFBDE8BA
:102A600020404FF000064FF000074FF000084FF0F5
:102A7000000B21F00701AC46ACE8C009ACE8C00986
:102A8000ACE8C009ACE8C0098D46704710B50446F3
:102A9000AFF300802046BDE81040FFF76EBF000096
:102AA000004870474802002001491820ABBEFEE7ED
:102AB000260002007047FEE7014800F09BB90000C5
:102AC000E0010020014800F095B900009C010020C1
:102AD000014800F08FB9000058010020704772B61D
:102AE000FEE7042101700021C170172282701B22B1
:102AF000427001220271018201818181C180C18104
:102B0000418241818182C1827047000006490020D4
:102B1000C8610648016941F004010161016941F0A1
:102B2000400101617047000028020020002002409F
:102B3000064A0021D16106490A6942F002020A618F
:102B40004861086940F04000086170472802002091
:102B500000200240044B0022DA61044A136943F06A
:102B60000103136101807047280200200020024009
:102B700014480022C168CB06134904D5CA6942F043
:102B80000202CA611022C3685B0705D5CB6943F016
:102B90000103CB6142F00402C369DB0707D0CB69B4
:102BA00043F00403CB61C16921F00101C161A2F5C9
:102BB0008071013901D0C2607047C16921F0010103
:102BC000C1617047002002402802002070B5054610
:102BD00000F0BAFB0646114C09E0681C07D025B18D
:102BE00000F0B2FB801BA84201D9032070BDE06851
:102BF000C007F2D1E068800601D52020E060E068DF
:102C0000C00605D4E069C00702D1E068400703D5DB
:102C1000FFF7AEFF012070BD002070BD0020024014
:102C200010B586B0044600F07DFA0120CDE90240DF
:102C300001900020009004A9684600F0D5F906B084
:102C400010BD2DE9F041164607460D4600F06AFA20
:102C50000024761C09E02A8807EB440100230120A8
:102C600000F020FA641CE4B2AD1CB4EB560FF2D3B2
:102C7000BDE8F04100F00CBA13B5012201A9FFF73D
:102C8000E0FF1CBD10B5044601F0FAFC204601F03F
:102C90007BFD204601F0B4FD204601F0BDFD20463D
:102CA00001F0C6FD204601F0CFFD204601F0D8FD21
:102CB000204601F0E1FD204601F0EAFD204601F04A
:102CC000EBFC204601F0F4FC204601F0FDFC204620
:102CD00001F006FD204601F00FFD204601F018FD31
:102CE000204601F021FD204601F02AFD204601F09A
:102CF00033FD204601F03CFD204601F051FD204609
:102D000001F05AFD204601F063FD2046BDE8104069
:102D100001F06ABD10B590F821100022022905D0FB
:102D20000421816380F82020012010BD01680B6818
:102D300023F00E030B6001680B6823F001030B60A6
:102D400090F84030C46B012101FA03F3636080F80E
:102D5000211080F82020104610BD000010B590F81A
:102D600021100024022903D00421816301243DE0C5
:102D700001680A6822F00E020A6001680A6822F0FF
:102D800001020A601A4A0168914201D1012121E041
:102D9000174A1432914201D110211BE0144A283203
:102DA000914201D1891515E0114A3C32914201D17D
:102DB00089140FE00E4A5032914202D14FF4803113
:102DC00008E00B4A6432914202D14FF4801101E0D5
:102DD0004FF08071064A083A5160012180F82110B5
:102DE000002180F82010416B01B18847204610BDBA
:102DF000080002402DE9F05FC16B0C6801680B68A8
:102E0000D0F840C0042202FA0CF2494DDFF824A1A8
:102E1000494E4A4FDFF828B1DFF828E122422CD092
:102E20005A072AD50A68920603D40A6822F00402D7
:102E30000A600168A94201D1042219E0514501D17B
:102E4000402215E0B14202D14FF4806210E0B94255
:102E500002D14FF480420BE0594502D14FF4802259
:102E600006E0714502D14FF4800201E04FF080622C
:102E70002F4908394A60C16A3BE04FF0020808FA5E
:102E80000CF818EA040F4FF000094FF0010235D09A
:102E90005FEA837832D50B689B0605D40B6823F074
:102EA0000A030B6080F821200168A94201D10222A7
:102EB00019E0514501D1202215E0B14202D14FF471
:102EC000007210E0B94202D14FF400520BE05945B4
:102ED00002D14FF4003206E0714502D14FF40012E6
:102EE00001E04FF00072124908394A6080F82090E2
:102EF000816A00291AD0BDE8F05F0847082505FA65
:102F00000CF5254212D01B0710D50B6823F00E03D9
:102F10000B6090F84010C36B02FA01F159608263B4
:102F200080F8212080F82090016BE2E7BDE8F09F57
:102F3000080002401C0002403000024044000240F1
:102F4000580002406C00024030B528B308C813494D
:102F500014221944B1FBF2F18900C1631049816365
:102F6000022141771A6843F6F0718A43D0E90014D0
:102F70002143D0E902452C4321430469214344699C
:102F800021438469214311431960002141630122D7
:102F900042770177084630BD012030BDF8FFFDBF04
:102FA00000000240064810B54FF0FF3101610022D9
:102FB0000261C160C26000F007FA002010BD00008D
:102FC0000010024070B5044600F0BEF90546601CD2
:102FD00002D004480078044400F0B6F9401BA04237
:102FE000FAD370BD100000202DE9F04705462648B1
:102FF0000F460126017E01290FD00121814601766D
:103000002868DFF888804CF25034022808D0A246A5
:103010002046FFF7DBFDA8B131E00220BDE8F087D4
:103020002046FFF7D3FD08BB0120FFF76FFD2046C8
:10303000FFF7CCFDD8F81010064621F00401C8F8BF
:1030400010101CE04FF0FF303860AC6811E02046F3
:10305000FFF76EFD5046FFF7B9FDD8F810100600D7
:1030600021F00201C8F8101001D03C6007E004F51F
:103070008064D5E9020100EB8120A042E7D800215D
:1030800089F818103046C9E72802002000200240C5
:103090000348016941F08001016100207047000090
:1030A000002002402DE9F05F07461C4888460024B6
:1030B000017E15461E46012909D00121814601766F
:1030C0004CF2503A5046FFF781FD18B122E0022041
:1030D000BDE8F09F012F02D0022F00D00427D34675
:1030E000DFF83CA0220128463146FFF76DFC81B293
:1030F00008EB4400FFF72EFD5846FFF767FDDAF8AE
:10310000102022F00102CAF8102018B9641CE4B2A1
:10311000BC42E7D3002289F81820D9E72802002012
:1031200000200240064900200A69120607D5054A18
:103130004A60054A4A600969090600D501207047BE
:103140000020024023016745AB89EFCD2DE9F84F00
:10315000DFF8B8910024A9F1040B23460F2709F1E9
:10316000040AABF1040EC9E00125A5402A40AA4299
:103170007DD1674ED1F804C0ACEB0608B44532D01F
:1031800014DCBCF1030F3AD009DCBCF1000F2AD0EB
:10319000BCF1010F1CD0BCF1020F31D11DE0BCF11C
:1031A000110F17D0BCF1120F2AD119E0B8F5881F02
:1031B00019D006DCB8F5803F15D0B8F5801F1FD1B7
:1031C00011E0B8F5001F0ED0B8F5041F18D10AE0C1
:1031D000CB6815E0CB681B1D12E0CB6808330FE00D
:1031E000CB680C330CE08B682BB1012B4FF008033C
:1031F00003D0456104E0042302E0056100E0002300
:10320000FF2A01D8064601E000F104064FEA8405D2
:1032100001D9A5F12005D6F8008007FA05FC28EAB7
:103220000C0803FA05F548EA0508C6F800804D6861
:10323000ED0062D5374DAE6946F00106AE61AD696D
:1032400024F0030605F001050095334D06EB050C4F
:10325000DCF80850A607360F07FA06F825EA080535
:10326000DFF8B880404503D14FF0000817E044E094
:10327000DFF8AC80404502D14FF001080FE0DFF8E5
:10328000A480404502D14FF0020808E0DFF89880A2
:10329000404502D14FF0030801E04FF0040808FA5E
:1032A00006F848EA0508CCF808804D68D9F80060AF
:1032B000ED024D4601D5164300E096432E604D6861
:1032C000DAF80060AD02554601D5164300E096439A
:1032D0002E604D68DBF80060AD035D4601D51643F6
:1032E00000E096432E604D68DEF80060ED03754601
:1032F00001D5164300E096432E60641C0D682A46F3
:10330000E5407FF431AFBDE8F88F000008040140CC
:1033100000001110001002400000014000080140B0
:10332000000C01400010014000140140C26821EA75
:1033300002030A4043EA0241016170470AB1016198
:1033400070470904FBE700000148806870470000EF
:1033500010000020024881680278114481607047A3
:1033600010000020074810B5016841F0100101600D
:10337000032000F077F80F2000F006F800F026F8A0
:10338000002010BD0020024070B50D4D04464FF4E2
:103390007A712878B1FBF0F00A490968B1FBF0F0C6
:1033A00000F0DEFA48B9102C07D200222146501E48
:1033B00000F038F800206C6070BD012070BD000086
:1033C000100000201C000020704700000C4808B5C9
:1033D000816941F001018161816901F00101009180
:1033E000C16941F08051C161C06900F08050009016
:1033F0000448416821F0E06141F00071416008BD7E
:103400000010024000000140002809DB00F01F020C
:10341000012191404009800000F1E020C0F8001136
:1034200070470000F0B40E4B1B680C46C3F3022338
:10343000C3F10705042D00D90425191D072901D260
:10344000002300E0DB1E012606FA05F1491E21409B
:1034500099409E40761E16403143F0BC01F0FFB803
:103460000CED00E0064900F0070208684FF6FF0384
:10347000184040EA0220034A1043086070470000E9
:103480000CED00E00000FA052DE9F0470F460500BD
:1034900061D0434E306800F00700B84209D230686E
:1034A00020F0070038433060306800F00700B84271
:1034B00051D128683B4C810712D5400703D560687D
:1034C00040F4E06060602878000703D5606840F44D
:1034D000605060606068A96820F0F0000843606098
:1034E0002878C00728D06868012810D021680228F1
:1034F00010D0890700292EDA616821F00301014309
:103500006160FFF721FF804641F288390DE02168B4
:103510008903EFE78901EDE7FFF716FFA0EB08014C
:10352000494502D90320BDE8F0876068696800F06A
:103530000C00B0EB810FEFD1306800F00700B8420B
:103540000BD9306820F0070038433060306800F055
:103550000700B84201D00120E5E72878400705D5EB
:103560006068E96820F4E06008436060287800073C
:1035700006D56068296920F4605040EAC1006060A7
:1035800000F038F86168084AC1F30311515CC84083
:103590000649086006480068FFF7F6FE0020C2E70B
:1035A00000200240001002403E4A00081C0000209B
:1035B000140000200448054900684968044AC1F322
:1035C0000221515CC84070471C00002000100240DE
:1035D0004E4A00080448054900684968044AC1F396
:1035E000C221515CC84070471C00002000100240FE
:1035F0004E4A00080E4A51680E4801F00C03042B95
:1036000011D0082B0FD10C48C1F38343C903C05C10
:103610000AD55168084AC1F34041921E515C054ADF
:103620005043B0FBF1F07047044948437047000035
:103630000010024000127A002E4A000800093D00E6
:103640002DE9F84F040070D02078C04DC00749D054
:103650006868C0F38100012807D06868C0F3810062
:10366000022809D16868C00306D52868800339D5C7
:1036700060680028E7D035E06068B0F5803F0BD087
:1036800010B1B0F5A02F11D0286820F48030286048
:10369000286820F4802002E0286840F48030286008
:1036A000606890B1FFF750FE06460AE0286840F4D3
:1036B00080202860F0E700BFFFF746FE801B6428EB
:1036C00073D828688003F7D50CE0FFF73DFE064667
:1036D00005E000BFFFF738FE801B6428F0D828689B
:1036E0008003F7D420789A4E80074FF001094FF0FD
:1036F000000839D5686810F00C0F07D06868C0F36F
:103700008100022809D16868C00306D428688007B0
:1037100014D52069012808D110E02069B0B1C6F89D
:103720000090FFF711FE074605E00AE1FFF70CFEE7
:10373000C01B0228C4D828688007F7D528686169AB
:1037400020F0F80040EAC10028600DE0C6F80080D3
:10375000FFF7FAFD074604E0FFF7F6FDC01B02285D
:1037600023D828688007F7D4207800072CD579481B
:10377000A169D9B1C0F80090FFF7E6FD074604E063
:10378000FFF7E2FDC01B02280FD8686A8007F7D553
:1037900071484FF4FA510068B0FBF1F0009000BF9F
:1037A0000098411E0091FAD20EE080E0C0F800803F
:1037B000FFF7CAFD074604E0FFF7C6FDC01B02285D
:1037C00075D8686A8007F7D42078400760D5E86923
:1037D0000027C00008D4E86940F08050E861E8693B
:1037E000012700F0805000905C480168C90513D49F
:1037F0000168834641F480710160FFF7A5FD8246B0
:1038000006E000BFFFF7A0FDA0EB0A0064284ED839
:10381000DBF80000C005F5D5E06801280AD008B142
:10382000052813D0286A20F001002862286A20F0B9
:10383000040002E0286A40F001002862E06841F2DA
:10384000883B98B1FFF780FD82460BE0286A40F084
:1038500004002862EEE700BFFFF776FDA0EB0A0147
:1038600059455AD8286A8007F6D50CE0FFF76CFD59
:10387000824605E0FFF768FDA0EB0A0159454CD8E8
:10388000286A8007F6D41FB1E86920F08050E8610B
:10389000E06988B36968C1F38101022944D0022834
:1038A000C6F8608004D0FFF74FFD044638E034E0EE
:1038B000FFF74AFD074604E0FFF746FDC01B02285C
:1038C0002BD828688001F7D4206AB0F5803F05D155
:1038D0006868A16820F4003008436860D4E90801F2
:1038E0000843696821F4741108436860C6F8609061
:1038F000FFF72AFD044606E025E000BFFFF724FDA0
:10390000001B022809D828688001F7D51BE000BFFA
:10391000FFF71AFD001B022802D90320BDE8F88F2B
:1039200028688001F4D40EE00128F7D06868226A84
:1039300000F48031914204D1616A00F47010884231
:1039400001D00120EAE70020E8E700000010024073
:1039500000004242800442421C00002000700040EF
:1039600010B5401EB0F1807F01D3012010BD4FF093
:10397000E02460610F21601700F071FE0020A0615B
:1039800007202061002010BD7047704770B590F887
:103990003C20012A26D0012480F83C40022280F8F5
:1039A0003D2003685A689D6822F070060A68324319
:1039B0005A600D4B02689A4208D0B2F1804F05D090
:1039C0000A4B9A4202D00A4B9A4204D1496825F028
:1039D00080031943916080F83D40002180F83C103D
:1039E000084670BD022070BD002C0140000400405C
:1039F0000008004010B5040003D094F83D0010B159
:103A000007E0012010BD002084F83C00204600F0B3
:103A10001FF8022084F83D00211D206800F0B4FC4E
:103A2000012084F8460084F83E0084F83F0084F8C2
:103A3000400084F8410084F8420084F8430084F890
:103A4000440084F8450084F83D00002010BD0000CB
:103A500008B5154A0168154891420ED1816941F4B3
:103A6000006181618069002200F400600090022101
:103A70001920FFF7D7FC192010E0B1F1804F11D1C8
:103A8000C16941F00101C161C069002200F001007B
:103A9000009001211C20FFF7C5FC1C20BDE8084058
:103AA000FFF7B2BC08BD0000002C0140001002402E
:103AB00090F83D10012901D001207047022180F8C3
:103AC0003D100168CA6842F00102CA6000680B49F3
:103AD000884208D0B0F1804F05D00949884202D011
:103AE0000849884204D1816801F00701062903D002
:103AF000016841F00101016000207047002C014085
:103B0000000400400008004070B5044690F83C00F6
:103B10000025012817D0012684F83C60022084F893
:103B20003D002068826822F0770222F47F428260A2
:103B30000868502838D00DDC20284FD005DC90B321
:103B4000102811D14AE0022070BD302846D040280C
:103B50000AD13BE060282FD070280DD0B0F5805FEF
:103B600003D0B0F5005F12D0012584F83D6000203D
:103B700084F83C00284670BDCB68D1E9012120685B
:103B800000F03EFC2068816841F0770109E0CB68D5
:103B9000D1E90121206800F033FC2068816841F4FC
:103BA00080418160E1E719E0CA684968206800F057
:103BB00039FC5021206806E0CA684968206800F096
:103BC00042FC6021206800F025FCCEE7CA68496805
:103BD000206800F027FC40212068F4E722680146B5
:103BE0001046F0E770472DE9F04104460068C668CA
:103BF00005694FF00007A90713D5B10711D5F91EC4
:103C0000016101202077206880698007204602D06A
:103C1000FFF7E8FF04E000F07EF8204600F07CF8B3
:103C20002777680716D5700714D521686FF0040050
:103C30000861022020772068806910F4407F2046C8
:103C400002D0FFF7CFFF04E000F065F8204600F057
:103C500063F82777280715D5300713D521686FF04B
:103C600008000861042020772068C069800720468A
:103C700002D0FFF7B7FF04E000F04DF8204600F057
:103C80004BF82777E80616D5F00614D521686FF0B3
:103C900010000861082020772068C06910F4407F78
:103CA000204602D0FFF79EFF04E000F034F82046E3
:103CB00000F032F82777E80708D0F00706D021682F
:103CC0006FF001000861204600F027F8280608D5AB
:103CD000300606D521686FF0800008612046FFF7A6
:103CE00053FE680608D5700606D521686FF04000BF
:103CF0000861204600F012F8A8060AD5B00608D5DB
:103D000021686FF0200008612046BDE8F041FFF710
:103D10003CBEBDE8F0817047704770477047704700
:103D200070470000F8B5016804460868CA684B6926
:103D300010F00F0F4FF0000559D003F0010602F408
:103D40009077374365D0C10705D0D10503D5616CA5
:103D500041F001016164410705D5D90703D0616CC9
:103D600041F002016164810705D5D90703D0616C78
:103D700041F004016164010707D502F020013143DD
:103D800003D0616C41F008016164616C00293AD094
:103D9000800604D5900602D5204600F095FB2068E9
:103DA0004069616CC0F38010090700D460B32046FD
:103DB00000F063FB20684069400621D5206814307C
:103DC00050E8001F21F0400140E80012002AF5D120
:103DD000E06BA8B16D494163E06BFEF7BFFF0028BF
:103DE00011D0E06B416B01B0BDE8F040084783069D
:103DF0000FD593060DD52046BDE8F84000F064BB12
:103E00002046FFF78DFFF8BD2046FFF789FF656468
:103E1000F8BD266B2023012E7CD1C6067AD5D606A6
:103E200078D508684868009048694FF00206400657
:103E300040D5E16B086840680004000CE8D0A28D12
:103E40008242E5D9E085886920282DD020680C3091
:103E500050E8001F21F4807140E80012002AF5D1DB
:103E60002068143050E8001F21F0010140E80012E2
:103E7000002AF5D12068143050E8001F21F04001DD
:103E800040E80012002AF5D184F84230256320680A
:103E90000C3050E8001F21F0100140E80012002A09
:103EA000F5D1E06BFEF736FF6663A08DE18D401A19
:103EB00081B22AE0A08DE18D401A81B2E08D002808
:103EC000A6D00029A4D022680C3252E8000F20F4BA
:103ED000907042E80007002FF5D12068143050E8B8
:103EE000002F22F0010240E80027002FF5D184F8CE
:103EF0004230256320680C3050E8002F22F0100279
:103F000040E80023002BF5D166632046FFF707FF4A
:103F1000F8BDFFE705062BD5150629D594F8410015
:103F20002128F5D1A068B0F5805F01D12069B0B13A
:103F3000206A411C2162216800784860E08C401EA4
:103F40000004000CE084E3D12068C16821F0800106
:103F5000C1602068C16841F04001C160D8E7206AB3
:103F60000088C0F308004860206A801C2062E5E7F2
:103F70004006CDD55006CBD5CA68204622F0400277
:103F8000CA6084F8413000F0EAF8C1E76B440008E9
:103F900070B5040004D094F84100002510B106E08B
:103FA000012070BD84F84050204600F023F8242002
:103FB00084F841002068C16821F40051C1602046A6
:103FC00000F0E4FA2068016921F490410161206861
:103FD000416921F02A0141612068C16841F4005122
:103FE000C1606564202084F8410084F84200656364
:103FF000002070BD2DE9F04186B0002400940194AA
:1040000002940394064603684C48DFF82CC1022151
:1040100003220515802763454CD1836943F480430F
:104020008361836903F480430493836943F0040349
:1040300083618069DFF8088100F0040004900802C1
:10404000CDE90001039269464046FFF77FF8CDE9CC
:104050000054694640460294FFF778F83A4D3948D3
:10406000C5E90004C5E902472C616C61AC612846D2
:10407000EC61FEF769FF08B1FEF731FDF5636E6292
:104080003048324D143801C5102091C52F4845F8ED
:1040900010496C61AC61EC61FEF756FF08B1FEF7A8
:1040A0001EFDB5630022114625206E62FFF7BAF9A6
:1040B00025203CE0DFF898C063453AD1C36943F45A
:1040C0008023C361C36903F480230493836943F0AD
:1040D000080383618069CDE9005100F00800CDE953
:1040E00003201C4D69462846FFF730F8E814CDE957
:1040F0000004694628460294FFF728F81148164D37
:104100002838C5E90004C5E902472C616C61AC613F
:104110002846EC61FEF718FF08B1FEF7E0FCF563F6
:104120000022114627206E62FFF77CF92720FFF757
:104130006BF906B0BDE8F081003801400010024084
:104140000008014058000240580100209C01002056
:1041500000480040000C0140E0010020704770471B
:10416000FEE700002DE9F04F85B000242E480094B2
:10417000019402940394816941F010018161816985
:1041800001F010010491816941F020018161816990
:1041900001F020010491816941F00401816181698C
:1041A00001F004010491816941F008018161806995
:1041B000DFF8789000F008004FF4005504900022DA
:1041C00029464846FFF7BAF8DFF864A049F6FF171A
:1041D000002239465046FFF7B1F8DFF858B04FF2E9
:1041E000FB38002241465846FFF7A8F80095022602
:1041F00001250396CDE9015469464846FEF7A6FF1E
:1042000000970396CDE9015469465046FEF79EFF9C
:10421000CDF800800396CDE9015469465846FEF773
:1042200095FF05B0BDE8F08F00100240001001407E
:1042300000080140000C014010B586B0002417486A
:10424000009401940294039404941349059401602A
:104250004721C0E901144FF6FF71C0E9031444611E
:104260008461FFF7C7FB08B172B6FEE74FF48050D8
:10427000009069460948FFF747FC08B172B6FEE7AF
:10428000049404A905480594FFF780FB002801D099
:1042900072B6FEE706B010BD002C014038000020C9
:1042A00010B586B00024164800940194029403943B
:1042B00004944FF08041059401604721C0E9011446
:1042C00040F2E731C0E903148461FFF793FB08B1C2
:1042D00072B6FEE74FF48050009069460848FFF739
:1042E00013FC08B172B6FEE7049404A904480594CF
:1042F000FFF74CFB002801D072B6FEE706B010BDF8
:1043000080000020FEE7FEE770477047FFF722B805
:1043100030B58FB028216846FEF769FB14210AA842
:10432000FEF765FB01210804CDE90010002402948A
:1043300002250491CDE907504FF4E010099068463A
:10434000FFF77EF908B172B6FEE70F20CDE90A0546
:104350004FF48060CDE90C4002210AA80E94FFF7CB
:1043600093F8002801D072B6FEE70FB030BD704759
:104370000148FFF738BC0000380000200148FFF773
:1043800032BC000080000020F0B50268194B1A4CC6
:104390001A4D4FF08047984205D0B84203D0A04252
:1043A00001D0A84203D122F070064A6832439842F5
:1043B00005D0B84203D0A04201D0A84203D122F4D4
:1043C0004074CA6822434C6922F080022243026092
:1043D0008A68C2620A688262984201D109690163EF
:1043E000012141610169C90703D0016921F001017F
:1043F0000161F0BD002C01400004004000080040B5
:1044000010B5846842EA032224F47F440A4322431D
:10441000826010BD826822F070020A4342F00701F8
:104420008160704710B5036A046A24F001040462D5
:10443000846924F0F00444EA021423F00A020A43D7
:104440008461026210BD10B5036A046A24F010048E
:104450000462846923F0A00324F4704444EA023225
:1044600043EA01118261016210BD10B5406A00216A
:10447000C185C184FFF754FC10BD01680C3151E8BF
:10448000002F22F4907241E80023002BF5D101683F
:10449000143151E8002F22F0010241E80023002BE3
:1044A000F5D1016B012909D101680C3151E8002FC8
:1044B00022F0100241E80023002BF5D1202180F8E2
:1044C000421000210163704708B590F8421022297C
:1044D00001D0022008BD82684FF480539A4201D176
:1044E000016921B1816A9A421BD04AB10AE002688F
:1044F000816A5268C2F308020A80816A891C08E056
:10450000026972B10268526802F07F020A70816A21
:10451000491C8162C18D491E0904090CC18503D063
:104520001BE002685268F1E70168CA6822F02002C5
:10453000CA600168CA6822F48072CA6001684A6968
:1045400022F001024A61202180F8421000214163DB
:10455000026B012A03D0FFF701FE002008BD0163B2
:1045600001680C3151E8002F22F0100241E80023CD
:10457000002BF5D101680A68D20602D50A6849689D
:104580000091818DFFF7CBFBE7E7000070B5044693
:1045900000680169E26821F4405111430161216919
:1045A000A0680843616908432168CA6841F20C6346
:1045B0009A430243CA6020684169A26921F44071AC
:1045C000114341611E492068884202D1FFF702F879
:1045D00001E0FEF7EFFF00EBC00101EB00126068A5
:1045E00064218000B2FBF0F3B3FBF1F36FF0180627
:1045F0007343B2FBF0F5B2FBF0F605EB8305322313
:1046000003EB0515B5FBF1F5B6FBF1F605F0F0058A
:1046100005EB0615B2FBF0F6B2FBF0F0B0FBF1F0E3
:104620006FF01802504306EB800003EB0010B0FB64
:10463000F1F0216800F00F002844886070BD000090
:10464000003801400148FFF76DBB0000C8000020A2
:104650000148FFF767BB000010010020FEE70907D3
:10466000090E002804DB00F1E02080F800147047F8
:1046700000F00F0000F1E02080F8141D70470000EA
:10468000044B20B1012280211846FEF757BE0022BC
:10469000F9E7000000080140044B20B10122042189
:1046A0001846FEF74BBE0022F9E700000008014063
:1046B000044B20B1012202211846FEF73FBE002222
:1046C000F9E7000000080140044B4FF4007118B1F5
:1046D00001221846FEF732BE0022FAE7000C014024
:1046E000044B4FF4807118B101221846FEF726BE24
:1046F0000022FAE7000C0140044B20B10122802186
:104700001846FEF71BBE0022F9E70000000C01402E
:10471000044B20B1012240211846FEF70FBE0022B3
:10472000F9E70000000C0140044B4FF4804118B140
:1047300001221846FEF702BE0022FAE7000C0140F3
:10474000044B20B1012220211846FEF7F7BD0022BC
:10475000F9E70000000C0140044B20B101220121C7
:104760001846FEF7EBBD0022F9E700000008014003
:10477000044B20B1012210211846FEF7DFBD0022B4
:10478000F9E70000000C0140044B20B10122012197
:104790001846FEF7D3BD0022F9E70000000C0140E7
:1047A000044B20B1012208211846FEF7C7BD0022A4
:1047B000F9E70000000C0140044B4FF4004118B130
:1047C00001221846FEF7BABD0022FAE700080140B0
:1047D000044B4FF4805118B101221846FEF7AEBDCC
:1047E0000022FAE700080140044B4FF4006118B1C1
:1047F00001221846FEF7A2BD0022FAE70008014098
:10480000044B20B1012240211846FEF797BD00223B
:10481000F9E7000000080140044B20B10122022109
:104820001846FEF78BBD0022F9E70000000C01409E
:10483000044B20B1012220211846FEF77FBD002243
:10484000F9E7000000080140044B20B101221021CB
:104850001846FEF773BD0022F9E70000000801408A
:10486000044B4FF4005118B101221846FEF766BD03
:104870000022FAE7000C0140044B20B1012208217C
:104880001846FEF75BBD0022F9E700000008014072
:10489000044B4FF4004118B101221846FEF74EBDFB
:1048A0000022FAE7000C0140544908B5524808605C
:1048B000FEF778FBFEF756FDFFF72AFDFFF752FCE7
:1048C0004F48416941F0010141614069002200F017
:1048D0000100009011460D20FEF7A4FD0D20FEF70B
:1048E00093FD002211460E20FEF79CFD0E20FEF7E0
:1048F0008BFD002211460F20FEF794FD0F20FEF7DE
:1049000083FD41483F49414D00240160C0E9015405
:104910000C26C460C0E904468461C461FFF738FB1B
:1049200008B172B6FEE7FFF787FCFFF7B9FC36481F
:104930003749483001604FF4E131C0E90114C460E7
:10494000C0E904468461C461FFF722FB08B172B676
:10495000FEE762B60120FEF795F92E48FEF7C1F892
:1049600029484838FFF7A4F82B4F4FF480760022EF
:1049700031463846FEF7E2FCFEF7E6FCDFF89C80A5
:10498000A146244CB346BA46032641F28837C8F8FC
:10499000040000BFD8F80000401CC8F80000A8427E
:1049A00001D3C8F80090267059465046FEF7BEFC69
:1049B0006420FEF707FBFEF7C7FCD8F80410401A86
:1049C000C8F80800B842E5D3154C2046FEF728F990
:1049D0001448112101702046FEF74EF9BFF34F8FA6
:1049E0000648001D0168104A01F4E06111430160AE
:1049F000BFF34F8F00BFFDE70028000808ED00E07F
:104A00000010024000380140C800002040420F0062
:104A10000048004020000020000C01400000002061
:104A2000007C00080C0000200400FA0501020203CB
:104A30000405060708090A0B0C0D0E0F10100000E4
:104A4000000000000000010203040607080900003E
:104A50000000010203040000784A00080000002062
:104A60002000000028290008984A000820000020A3
:104A70008808000044290008000000000000000031
:104A80000000000000000000010000001000000015
:084A9000000000000024F40006
:04000005080028EDDA
:00000001FF
